{
	"data": {
		"bytecode": {
			"linkReferences": {},
			"object": "60a0604052348015600e575f5ffd5b503373ffffffffffffffffffffffffffffffffffffffff1660808173ffffffffffffffffffffffffffffffffffffffff1681525050608051610c2c6100625f395f818161016701526104d20152610c2c5ff3fe608060405260043610610054575f3560e01c80632398fa15146100585780633890145a146100945780633ccfd60b146100be578063b60d4288146100d4578063dba6335f146100de578063dc0d3dff14610108575b5f5ffd5b348015610063575f5ffd5b5061007e6004803603810190610079919061070b565b610144565b60405161008b919061074e565b60405180910390f35b34801561009f575f5ffd5b506100a8610159565b6040516100b5919061074e565b60405180910390f35b3480156100c9575f5ffd5b506100d2610165565b005b6100dc610393565b005b3480156100e9575f5ffd5b506100f26104d0565b6040516100ff9190610776565b60405180910390f35b348015610113575f5ffd5b5061012e600480360381019061012991906107b9565b6104f4565b60405161013b9190610776565b60405180910390f35b6001602052805f5260405f205f915090505481565b674563918244f4000081565b7f000000000000000000000000000000000000000000000000000000000000000073ffffffffffffffffffffffffffffffffffffffff163373ffffffffffffffffffffffffffffffffffffffff16146101ea576040517f579610db00000000000000000000000000000000000000000000000000000000815260040160405180910390fd5b5f5f90505b5f80549050811015610289575f5f828154811061020f5761020e6107e4565b5b905f5260205f20015f9054906101000a900473ffffffffffffffffffffffffffffffffffffffff1690505f60015f8373ffffffffffffffffffffffffffffffffffffffff1673ffffffffffffffffffffffffffffffffffffffff1681526020019081526020015f20819055505080806001019150506101ef565b505f67ffffffffffffffff8111156102a4576102a3610811565b5b6040519080825280602002602001820160405280156102d25781602001602082028036833780820191505090505b505f90805190602001906102e792919061060b565b505f3373ffffffffffffffffffffffffffffffffffffffff164760405161030d9061086b565b5f6040518083038185875af1925050503d805f8114610347576040519150601f19603f3d011682016040523d82523d5f602084013e61034c565b606091505b5050905080610390576040517f08c379a0000000000000000000000000000000000000000000000000000000008152600401610387906108d9565b60405180910390fd5b50565b674563918244f400006103a53461052e565b116103e5576040517f08c379a00000000000000000000000000000000000000000000000000000000081526004016103dc90610967565b60405180910390fd5b5f33908060018154018082558091505060019003905f5260205f20015f9091909190916101000a81548173ffffffffffffffffffffffffffffffffffffffff021916908373ffffffffffffffffffffffffffffffffffffffff1602179055503460015f3373ffffffffffffffffffffffffffffffffffffffff1673ffffffffffffffffffffffffffffffffffffffff1681526020019081526020015f205461048d91906109b2565b60015f3373ffffffffffffffffffffffffffffffffffffffff1673ffffffffffffffffffffffffffffffffffffffff1681526020019081526020015f2081905550565b7f000000000000000000000000000000000000000000000000000000000000000081565b5f8181548110610502575f80fd5b905f5260205f20015f915054906101000a900473ffffffffffffffffffffffffffffffffffffffff1681565b5f5f610538610566565b90505f670de0b6b3a7640000848361055091906109e5565b61055a9190610a53565b90508092505050919050565b5f5f73694aa1769357215de4fac081bf1f309adc32530690505f8173ffffffffffffffffffffffffffffffffffffffff1663feaf968c6040518163ffffffff1660e01b815260040160a060405180830381865afa1580156105c9573d5f5f3e3d5ffd5b505050506040513d601f19601f820116820180604052508101906105ed9190610b09565b5050509150506402540be400816106049190610b80565b9250505090565b828054828255905f5260205f20908101928215610681579160200282015b82811115610680578251825f6101000a81548173ffffffffffffffffffffffffffffffffffffffff021916908373ffffffffffffffffffffffffffffffffffffffff16021790555091602001919060010190610629565b5b50905061068e9190610692565b5090565b5b808211156106a9575f815f905550600101610693565b5090565b5f5ffd5b5f73ffffffffffffffffffffffffffffffffffffffff82169050919050565b5f6106da826106b1565b9050919050565b6106ea816106d0565b81146106f4575f5ffd5b50565b5f81359050610705816106e1565b92915050565b5f602082840312156107205761071f6106ad565b5b5f61072d848285016106f7565b91505092915050565b5f819050919050565b61074881610736565b82525050565b5f6020820190506107615f83018461073f565b92915050565b610770816106d0565b82525050565b5f6020820190506107895f830184610767565b92915050565b61079881610736565b81146107a2575f5ffd5b50565b5f813590506107b38161078f565b92915050565b5f602082840312156107ce576107cd6106ad565b5b5f6107db848285016107a5565b91505092915050565b7f4e487b71000000000000000000000000000000000000000000000000000000005f52603260045260245ffd5b7f4e487b71000000000000000000000000000000000000000000000000000000005f52604160045260245ffd5b5f81905092915050565b50565b5f6108565f8361083e565b915061086182610848565b5f82019050919050565b5f6108758261084b565b9150819050919050565b5f82825260208201905092915050565b7f63616c6c206661696c65640000000000000000000000000000000000000000005f82015250565b5f6108c3600b8361087f565b91506108ce8261088f565b602082019050919050565b5f6020820190508181035f8301526108f0816108b7565b9050919050565b7f596f75206d7573742073656e64206d6f7265207468616e206d696e696d756d205f8201527f5553440000000000000000000000000000000000000000000000000000000000602082015250565b5f61095160238361087f565b915061095c826108f7565b604082019050919050565b5f6020820190508181035f83015261097e81610945565b9050919050565b7f4e487b71000000000000000000000000000000000000000000000000000000005f52601160045260245ffd5b5f6109bc82610736565b91506109c783610736565b92508282019050808211156109df576109de610985565b5b92915050565b5f6109ef82610736565b91506109fa83610736565b9250828202610a0881610736565b91508282048414831517610a1f57610a1e610985565b5b5092915050565b7f4e487b71000000000000000000000000000000000000000000000000000000005f52601260045260245ffd5b5f610a5d82610736565b9150610a6883610736565b925082610a7857610a77610a26565b5b828204905092915050565b5f69ffffffffffffffffffff82169050919050565b610aa181610a83565b8114610aab575f5ffd5b50565b5f81519050610abc81610a98565b92915050565b5f819050919050565b610ad481610ac2565b8114610ade575f5ffd5b50565b5f81519050610aef81610acb565b92915050565b5f81519050610b038161078f565b92915050565b5f5f5f5f5f60a08688031215610b2257610b216106ad565b5b5f610b2f88828901610aae565b9550506020610b4088828901610ae1565b9450506040610b5188828901610af5565b9350506060610b6288828901610af5565b9250506080610b7388828901610aae565b9150509295509295909350565b5f610b8a82610ac2565b9150610b9583610ac2565b9250828202610ba381610ac2565b91507f800000000000000000000000000000000000000000000000000000000000000084145f84121615610bda57610bd9610985565b5b8282058414831517610bef57610bee610985565b5b509291505056fea264697066735822122053e07156305bfed6135c044aea8a781c26bc26aabe375dce8150cbae2d418a8a64736f6c634300081d0033",
			"opcodes": "PUSH1 0xA0 PUSH1 0x40 MSTORE CALLVALUE DUP1 ISZERO PUSH1 0xE JUMPI PUSH0 PUSH0 REVERT JUMPDEST POP CALLER PUSH20 0xFFFFFFFFFFFFFFFFFFFFFFFFFFFFFFFFFFFFFFFF AND PUSH1 0x80 DUP2 PUSH20 0xFFFFFFFFFFFFFFFFFFFFFFFFFFFFFFFFFFFFFFFF AND DUP2 MSTORE POP POP PUSH1 0x80 MLOAD PUSH2 0xC2C PUSH2 0x62 PUSH0 CODECOPY PUSH0 DUP2 DUP2 PUSH2 0x167 ADD MSTORE PUSH2 0x4D2 ADD MSTORE PUSH2 0xC2C PUSH0 RETURN INVALID PUSH1 0x80 PUSH1 0x40 MSTORE PUSH1 0x4 CALLDATASIZE LT PUSH2 0x54 JUMPI PUSH0 CALLDATALOAD PUSH1 0xE0 SHR DUP1 PUSH4 0x2398FA15 EQ PUSH2 0x58 JUMPI DUP1 PUSH4 0x3890145A EQ PUSH2 0x94 JUMPI DUP1 PUSH4 0x3CCFD60B EQ PUSH2 0xBE JUMPI DUP1 PUSH4 0xB60D4288 EQ PUSH2 0xD4 JUMPI DUP1 PUSH4 0xDBA6335F EQ PUSH2 0xDE JUMPI DUP1 PUSH4 0xDC0D3DFF EQ PUSH2 0x108 JUMPI JUMPDEST PUSH0 PUSH0 REVERT JUMPDEST CALLVALUE DUP1 ISZERO PUSH2 0x63 JUMPI PUSH0 PUSH0 REVERT JUMPDEST POP PUSH2 0x7E PUSH1 0x4 DUP1 CALLDATASIZE SUB DUP2 ADD SWAP1 PUSH2 0x79 SWAP2 SWAP1 PUSH2 0x70B JUMP JUMPDEST PUSH2 0x144 JUMP JUMPDEST PUSH1 0x40 MLOAD PUSH2 0x8B SWAP2 SWAP1 PUSH2 0x74E JUMP JUMPDEST PUSH1 0x40 MLOAD DUP1 SWAP2 SUB SWAP1 RETURN JUMPDEST CALLVALUE DUP1 ISZERO PUSH2 0x9F JUMPI PUSH0 PUSH0 REVERT JUMPDEST POP PUSH2 0xA8 PUSH2 0x159 JUMP JUMPDEST PUSH1 0x40 MLOAD PUSH2 0xB5 SWAP2 SWAP1 PUSH2 0x74E JUMP JUMPDEST PUSH1 0x40 MLOAD DUP1 SWAP2 SUB SWAP1 RETURN JUMPDEST CALLVALUE DUP1 ISZERO PUSH2 0xC9 JUMPI PUSH0 PUSH0 REVERT JUMPDEST POP PUSH2 0xD2 PUSH2 0x165 JUMP JUMPDEST STOP JUMPDEST PUSH2 0xDC PUSH2 0x393 JUMP JUMPDEST STOP JUMPDEST CALLVALUE DUP1 ISZERO PUSH2 0xE9 JUMPI PUSH0 PUSH0 REVERT JUMPDEST POP PUSH2 0xF2 PUSH2 0x4D0 JUMP JUMPDEST PUSH1 0x40 MLOAD PUSH2 0xFF SWAP2 SWAP1 PUSH2 0x776 JUMP JUMPDEST PUSH1 0x40 MLOAD DUP1 SWAP2 SUB SWAP1 RETURN JUMPDEST CALLVALUE DUP1 ISZERO PUSH2 0x113 JUMPI PUSH0 PUSH0 REVERT JUMPDEST POP PUSH2 0x12E PUSH1 0x4 DUP1 CALLDATASIZE SUB DUP2 ADD SWAP1 PUSH2 0x129 SWAP2 SWAP1 PUSH2 0x7B9 JUMP JUMPDEST PUSH2 0x4F4 JUMP JUMPDEST PUSH1 0x40 MLOAD PUSH2 0x13B SWAP2 SWAP1 PUSH2 0x776 JUMP JUMPDEST PUSH1 0x40 MLOAD DUP1 SWAP2 SUB SWAP1 RETURN JUMPDEST PUSH1 0x1 PUSH1 0x20 MSTORE DUP1 PUSH0 MSTORE PUSH1 0x40 PUSH0 KECCAK256 PUSH0 SWAP2 POP SWAP1 POP SLOAD DUP2 JUMP JUMPDEST PUSH8 0x4563918244F40000 DUP2 JUMP JUMPDEST PUSH32 0x0 PUSH20 0xFFFFFFFFFFFFFFFFFFFFFFFFFFFFFFFFFFFFFFFF AND CALLER PUSH20 0xFFFFFFFFFFFFFFFFFFFFFFFFFFFFFFFFFFFFFFFF AND EQ PUSH2 0x1EA JUMPI PUSH1 0x40 MLOAD PUSH32 0x579610DB00000000000000000000000000000000000000000000000000000000 DUP2 MSTORE PUSH1 0x4 ADD PUSH1 0x40 MLOAD DUP1 SWAP2 SUB SWAP1 REVERT JUMPDEST PUSH0 PUSH0 SWAP1 POP JUMPDEST PUSH0 DUP1 SLOAD SWAP1 POP DUP2 LT ISZERO PUSH2 0x289 JUMPI PUSH0 PUSH0 DUP3 DUP2 SLOAD DUP2 LT PUSH2 0x20F JUMPI PUSH2 0x20E PUSH2 0x7E4 JUMP JUMPDEST JUMPDEST SWAP1 PUSH0 MSTORE PUSH1 0x20 PUSH0 KECCAK256 ADD PUSH0 SWAP1 SLOAD SWAP1 PUSH2 0x100 EXP SWAP1 DIV PUSH20 0xFFFFFFFFFFFFFFFFFFFFFFFFFFFFFFFFFFFFFFFF AND SWAP1 POP PUSH0 PUSH1 0x1 PUSH0 DUP4 PUSH20 0xFFFFFFFFFFFFFFFFFFFFFFFFFFFFFFFFFFFFFFFF AND PUSH20 0xFFFFFFFFFFFFFFFFFFFFFFFFFFFFFFFFFFFFFFFF AND DUP2 MSTORE PUSH1 0x20 ADD SWAP1 DUP2 MSTORE PUSH1 0x20 ADD PUSH0 KECCAK256 DUP2 SWAP1 SSTORE POP POP DUP1 DUP1 PUSH1 0x1 ADD SWAP2 POP POP PUSH2 0x1EF JUMP JUMPDEST POP PUSH0 PUSH8 0xFFFFFFFFFFFFFFFF DUP2 GT ISZERO PUSH2 0x2A4 JUMPI PUSH2 0x2A3 PUSH2 0x811 JUMP JUMPDEST JUMPDEST PUSH1 0x40 MLOAD SWAP1 DUP1 DUP3 MSTORE DUP1 PUSH1 0x20 MUL PUSH1 0x20 ADD DUP3 ADD PUSH1 0x40 MSTORE DUP1 ISZERO PUSH2 0x2D2 JUMPI DUP2 PUSH1 0x20 ADD PUSH1 0x20 DUP3 MUL DUP1 CALLDATASIZE DUP4 CALLDATACOPY DUP1 DUP3 ADD SWAP2 POP POP SWAP1 POP JUMPDEST POP PUSH0 SWAP1 DUP1 MLOAD SWAP1 PUSH1 0x20 ADD SWAP1 PUSH2 0x2E7 SWAP3 SWAP2 SWAP1 PUSH2 0x60B JUMP JUMPDEST POP PUSH0 CALLER PUSH20 0xFFFFFFFFFFFFFFFFFFFFFFFFFFFFFFFFFFFFFFFF AND SELFBALANCE PUSH1 0x40 MLOAD PUSH2 0x30D SWAP1 PUSH2 0x86B JUMP JUMPDEST PUSH0 PUSH1 0x40 MLOAD DUP1 DUP4 SUB DUP2 DUP6 DUP8 GAS CALL SWAP3 POP POP POP RETURNDATASIZE DUP1 PUSH0 DUP2 EQ PUSH2 0x347 JUMPI PUSH1 0x40 MLOAD SWAP2 POP PUSH1 0x1F NOT PUSH1 0x3F RETURNDATASIZE ADD AND DUP3 ADD PUSH1 0x40 MSTORE RETURNDATASIZE DUP3 MSTORE RETURNDATASIZE PUSH0 PUSH1 0x20 DUP5 ADD RETURNDATACOPY PUSH2 0x34C JUMP JUMPDEST PUSH1 0x60 SWAP2 POP JUMPDEST POP POP SWAP1 POP DUP1 PUSH2 0x390 JUMPI PUSH1 0x40 MLOAD PUSH32 0x8C379A000000000000000000000000000000000000000000000000000000000 DUP2 MSTORE PUSH1 0x4 ADD PUSH2 0x387 SWAP1 PUSH2 0x8D9 JUMP JUMPDEST PUSH1 0x40 MLOAD DUP1 SWAP2 SUB SWAP1 REVERT JUMPDEST POP JUMP JUMPDEST PUSH8 0x4563918244F40000 PUSH2 0x3A5 CALLVALUE PUSH2 0x52E JUMP JUMPDEST GT PUSH2 0x3E5 JUMPI PUSH1 0x40 MLOAD PUSH32 0x8C379A000000000000000000000000000000000000000000000000000000000 DUP2 MSTORE PUSH1 0x4 ADD PUSH2 0x3DC SWAP1 PUSH2 0x967 JUMP JUMPDEST PUSH1 0x40 MLOAD DUP1 SWAP2 SUB SWAP1 REVERT JUMPDEST PUSH0 CALLER SWAP1 DUP1 PUSH1 0x1 DUP2 SLOAD ADD DUP1 DUP3 SSTORE DUP1 SWAP2 POP POP PUSH1 0x1 SWAP1 SUB SWAP1 PUSH0 MSTORE PUSH1 0x20 PUSH0 KECCAK256 ADD PUSH0 SWAP1 SWAP2 SWAP1 SWAP2 SWAP1 SWAP2 PUSH2 0x100 EXP DUP2 SLOAD DUP2 PUSH20 0xFFFFFFFFFFFFFFFFFFFFFFFFFFFFFFFFFFFFFFFF MUL NOT AND SWAP1 DUP4 PUSH20 0xFFFFFFFFFFFFFFFFFFFFFFFFFFFFFFFFFFFFFFFF AND MUL OR SWAP1 SSTORE POP CALLVALUE PUSH1 0x1 PUSH0 CALLER PUSH20 0xFFFFFFFFFFFFFFFFFFFFFFFFFFFFFFFFFFFFFFFF AND PUSH20 0xFFFFFFFFFFFFFFFFFFFFFFFFFFFFFFFFFFFFFFFF AND DUP2 MSTORE PUSH1 0x20 ADD SWAP1 DUP2 MSTORE PUSH1 0x20 ADD PUSH0 KECCAK256 SLOAD PUSH2 0x48D SWAP2 SWAP1 PUSH2 0x9B2 JUMP JUMPDEST PUSH1 0x1 PUSH0 CALLER PUSH20 0xFFFFFFFFFFFFFFFFFFFFFFFFFFFFFFFFFFFFFFFF AND PUSH20 0xFFFFFFFFFFFFFFFFFFFFFFFFFFFFFFFFFFFFFFFF AND DUP2 MSTORE PUSH1 0x20 ADD SWAP1 DUP2 MSTORE PUSH1 0x20 ADD PUSH0 KECCAK256 DUP2 SWAP1 SSTORE POP JUMP JUMPDEST PUSH32 0x0 DUP2 JUMP JUMPDEST PUSH0 DUP2 DUP2 SLOAD DUP2 LT PUSH2 0x502 JUMPI PUSH0 DUP1 REVERT JUMPDEST SWAP1 PUSH0 MSTORE PUSH1 0x20 PUSH0 KECCAK256 ADD PUSH0 SWAP2 POP SLOAD SWAP1 PUSH2 0x100 EXP SWAP1 DIV PUSH20 0xFFFFFFFFFFFFFFFFFFFFFFFFFFFFFFFFFFFFFFFF AND DUP2 JUMP JUMPDEST PUSH0 PUSH0 PUSH2 0x538 PUSH2 0x566 JUMP JUMPDEST SWAP1 POP PUSH0 PUSH8 0xDE0B6B3A7640000 DUP5 DUP4 PUSH2 0x550 SWAP2 SWAP1 PUSH2 0x9E5 JUMP JUMPDEST PUSH2 0x55A SWAP2 SWAP1 PUSH2 0xA53 JUMP JUMPDEST SWAP1 POP DUP1 SWAP3 POP POP POP SWAP2 SWAP1 POP JUMP JUMPDEST PUSH0 PUSH0 PUSH20 0x694AA1769357215DE4FAC081BF1F309ADC325306 SWAP1 POP PUSH0 DUP2 PUSH20 0xFFFFFFFFFFFFFFFFFFFFFFFFFFFFFFFFFFFFFFFF AND PUSH4 0xFEAF968C PUSH1 0x40 MLOAD DUP2 PUSH4 0xFFFFFFFF AND PUSH1 0xE0 SHL DUP2 MSTORE PUSH1 0x4 ADD PUSH1 0xA0 PUSH1 0x40 MLOAD DUP1 DUP4 SUB DUP2 DUP7 GAS STATICCALL ISZERO DUP1 ISZERO PUSH2 0x5C9 JUMPI RETURNDATASIZE PUSH0 PUSH0 RETURNDATACOPY RETURNDATASIZE PUSH0 REVERT JUMPDEST POP POP POP POP PUSH1 0x40 MLOAD RETURNDATASIZE PUSH1 0x1F NOT PUSH1 0x1F DUP3 ADD AND DUP3 ADD DUP1 PUSH1 0x40 MSTORE POP DUP2 ADD SWAP1 PUSH2 0x5ED SWAP2 SWAP1 PUSH2 0xB09 JUMP JUMPDEST POP POP POP SWAP2 POP POP PUSH5 0x2540BE400 DUP2 PUSH2 0x604 SWAP2 SWAP1 PUSH2 0xB80 JUMP JUMPDEST SWAP3 POP POP POP SWAP1 JUMP JUMPDEST DUP3 DUP1 SLOAD DUP3 DUP3 SSTORE SWAP1 PUSH0 MSTORE PUSH1 0x20 PUSH0 KECCAK256 SWAP1 DUP2 ADD SWAP3 DUP3 ISZERO PUSH2 0x681 JUMPI SWAP2 PUSH1 0x20 MUL DUP3 ADD JUMPDEST DUP3 DUP2 GT ISZERO PUSH2 0x680 JUMPI DUP3 MLOAD DUP3 PUSH0 PUSH2 0x100 EXP DUP2 SLOAD DUP2 PUSH20 0xFFFFFFFFFFFFFFFFFFFFFFFFFFFFFFFFFFFFFFFF MUL NOT AND SWAP1 DUP4 PUSH20 0xFFFFFFFFFFFFFFFFFFFFFFFFFFFFFFFFFFFFFFFF AND MUL OR SWAP1 SSTORE POP SWAP2 PUSH1 0x20 ADD SWAP2 SWAP1 PUSH1 0x1 ADD SWAP1 PUSH2 0x629 JUMP JUMPDEST JUMPDEST POP SWAP1 POP PUSH2 0x68E SWAP2 SWAP1 PUSH2 0x692 JUMP JUMPDEST POP SWAP1 JUMP JUMPDEST JUMPDEST DUP1 DUP3 GT ISZERO PUSH2 0x6A9 JUMPI PUSH0 DUP2 PUSH0 SWAP1 SSTORE POP PUSH1 0x1 ADD PUSH2 0x693 JUMP JUMPDEST POP SWAP1 JUMP JUMPDEST PUSH0 PUSH0 REVERT JUMPDEST PUSH0 PUSH20 0xFFFFFFFFFFFFFFFFFFFFFFFFFFFFFFFFFFFFFFFF DUP3 AND SWAP1 POP SWAP2 SWAP1 POP JUMP JUMPDEST PUSH0 PUSH2 0x6DA DUP3 PUSH2 0x6B1 JUMP JUMPDEST SWAP1 POP SWAP2 SWAP1 POP JUMP JUMPDEST PUSH2 0x6EA DUP2 PUSH2 0x6D0 JUMP JUMPDEST DUP2 EQ PUSH2 0x6F4 JUMPI PUSH0 PUSH0 REVERT JUMPDEST POP JUMP JUMPDEST PUSH0 DUP2 CALLDATALOAD SWAP1 POP PUSH2 0x705 DUP2 PUSH2 0x6E1 JUMP JUMPDEST SWAP3 SWAP2 POP POP JUMP JUMPDEST PUSH0 PUSH1 0x20 DUP3 DUP5 SUB SLT ISZERO PUSH2 0x720 JUMPI PUSH2 0x71F PUSH2 0x6AD JUMP JUMPDEST JUMPDEST PUSH0 PUSH2 0x72D DUP5 DUP3 DUP6 ADD PUSH2 0x6F7 JUMP JUMPDEST SWAP2 POP POP SWAP3 SWAP2 POP POP JUMP JUMPDEST PUSH0 DUP2 SWAP1 POP SWAP2 SWAP1 POP JUMP JUMPDEST PUSH2 0x748 DUP2 PUSH2 0x736 JUMP JUMPDEST DUP3 MSTORE POP POP JUMP JUMPDEST PUSH0 PUSH1 0x20 DUP3 ADD SWAP1 POP PUSH2 0x761 PUSH0 DUP4 ADD DUP5 PUSH2 0x73F JUMP JUMPDEST SWAP3 SWAP2 POP POP JUMP JUMPDEST PUSH2 0x770 DUP2 PUSH2 0x6D0 JUMP JUMPDEST DUP3 MSTORE POP POP JUMP JUMPDEST PUSH0 PUSH1 0x20 DUP3 ADD SWAP1 POP PUSH2 0x789 PUSH0 DUP4 ADD DUP5 PUSH2 0x767 JUMP JUMPDEST SWAP3 SWAP2 POP POP JUMP JUMPDEST PUSH2 0x798 DUP2 PUSH2 0x736 JUMP JUMPDEST DUP2 EQ PUSH2 0x7A2 JUMPI PUSH0 PUSH0 REVERT JUMPDEST POP JUMP JUMPDEST PUSH0 DUP2 CALLDATALOAD SWAP1 POP PUSH2 0x7B3 DUP2 PUSH2 0x78F JUMP JUMPDEST SWAP3 SWAP2 POP POP JUMP JUMPDEST PUSH0 PUSH1 0x20 DUP3 DUP5 SUB SLT ISZERO PUSH2 0x7CE JUMPI PUSH2 0x7CD PUSH2 0x6AD JUMP JUMPDEST JUMPDEST PUSH0 PUSH2 0x7DB DUP5 DUP3 DUP6 ADD PUSH2 0x7A5 JUMP JUMPDEST SWAP2 POP POP SWAP3 SWAP2 POP POP JUMP JUMPDEST PUSH32 0x4E487B7100000000000000000000000000000000000000000000000000000000 PUSH0 MSTORE PUSH1 0x32 PUSH1 0x4 MSTORE PUSH1 0x24 PUSH0 REVERT JUMPDEST PUSH32 0x4E487B7100000000000000000000000000000000000000000000000000000000 PUSH0 MSTORE PUSH1 0x41 PUSH1 0x4 MSTORE PUSH1 0x24 PUSH0 REVERT JUMPDEST PUSH0 DUP2 SWAP1 POP SWAP3 SWAP2 POP POP JUMP JUMPDEST POP JUMP JUMPDEST PUSH0 PUSH2 0x856 PUSH0 DUP4 PUSH2 0x83E JUMP JUMPDEST SWAP2 POP PUSH2 0x861 DUP3 PUSH2 0x848 JUMP JUMPDEST PUSH0 DUP3 ADD SWAP1 POP SWAP2 SWAP1 POP JUMP JUMPDEST PUSH0 PUSH2 0x875 DUP3 PUSH2 0x84B JUMP JUMPDEST SWAP2 POP DUP2 SWAP1 POP SWAP2 SWAP1 POP JUMP JUMPDEST PUSH0 DUP3 DUP3 MSTORE PUSH1 0x20 DUP3 ADD SWAP1 POP SWAP3 SWAP2 POP POP JUMP JUMPDEST PUSH32 0x63616C6C206661696C6564000000000000000000000000000000000000000000 PUSH0 DUP3 ADD MSTORE POP JUMP JUMPDEST PUSH0 PUSH2 0x8C3 PUSH1 0xB DUP4 PUSH2 0x87F JUMP JUMPDEST SWAP2 POP PUSH2 0x8CE DUP3 PUSH2 0x88F JUMP JUMPDEST PUSH1 0x20 DUP3 ADD SWAP1 POP SWAP2 SWAP1 POP JUMP JUMPDEST PUSH0 PUSH1 0x20 DUP3 ADD SWAP1 POP DUP2 DUP2 SUB PUSH0 DUP4 ADD MSTORE PUSH2 0x8F0 DUP2 PUSH2 0x8B7 JUMP JUMPDEST SWAP1 POP SWAP2 SWAP1 POP JUMP JUMPDEST PUSH32 0x596F75206D7573742073656E64206D6F7265207468616E206D696E696D756D20 PUSH0 DUP3 ADD MSTORE PUSH32 0x5553440000000000000000000000000000000000000000000000000000000000 PUSH1 0x20 DUP3 ADD MSTORE POP JUMP JUMPDEST PUSH0 PUSH2 0x951 PUSH1 0x23 DUP4 PUSH2 0x87F JUMP JUMPDEST SWAP2 POP PUSH2 0x95C DUP3 PUSH2 0x8F7 JUMP JUMPDEST PUSH1 0x40 DUP3 ADD SWAP1 POP SWAP2 SWAP1 POP JUMP JUMPDEST PUSH0 PUSH1 0x20 DUP3 ADD SWAP1 POP DUP2 DUP2 SUB PUSH0 DUP4 ADD MSTORE PUSH2 0x97E DUP2 PUSH2 0x945 JUMP JUMPDEST SWAP1 POP SWAP2 SWAP1 POP JUMP JUMPDEST PUSH32 0x4E487B7100000000000000000000000000000000000000000000000000000000 PUSH0 MSTORE PUSH1 0x11 PUSH1 0x4 MSTORE PUSH1 0x24 PUSH0 REVERT JUMPDEST PUSH0 PUSH2 0x9BC DUP3 PUSH2 0x736 JUMP JUMPDEST SWAP2 POP PUSH2 0x9C7 DUP4 PUSH2 0x736 JUMP JUMPDEST SWAP3 POP DUP3 DUP3 ADD SWAP1 POP DUP1 DUP3 GT ISZERO PUSH2 0x9DF JUMPI PUSH2 0x9DE PUSH2 0x985 JUMP JUMPDEST JUMPDEST SWAP3 SWAP2 POP POP JUMP JUMPDEST PUSH0 PUSH2 0x9EF DUP3 PUSH2 0x736 JUMP JUMPDEST SWAP2 POP PUSH2 0x9FA DUP4 PUSH2 0x736 JUMP JUMPDEST SWAP3 POP DUP3 DUP3 MUL PUSH2 0xA08 DUP2 PUSH2 0x736 JUMP JUMPDEST SWAP2 POP DUP3 DUP3 DIV DUP5 EQ DUP4 ISZERO OR PUSH2 0xA1F JUMPI PUSH2 0xA1E PUSH2 0x985 JUMP JUMPDEST JUMPDEST POP SWAP3 SWAP2 POP POP JUMP JUMPDEST PUSH32 0x4E487B7100000000000000000000000000000000000000000000000000000000 PUSH0 MSTORE PUSH1 0x12 PUSH1 0x4 MSTORE PUSH1 0x24 PUSH0 REVERT JUMPDEST PUSH0 PUSH2 0xA5D DUP3 PUSH2 0x736 JUMP JUMPDEST SWAP2 POP PUSH2 0xA68 DUP4 PUSH2 0x736 JUMP JUMPDEST SWAP3 POP DUP3 PUSH2 0xA78 JUMPI PUSH2 0xA77 PUSH2 0xA26 JUMP JUMPDEST JUMPDEST DUP3 DUP3 DIV SWAP1 POP SWAP3 SWAP2 POP POP JUMP JUMPDEST PUSH0 PUSH10 0xFFFFFFFFFFFFFFFFFFFF DUP3 AND SWAP1 POP SWAP2 SWAP1 POP JUMP JUMPDEST PUSH2 0xAA1 DUP2 PUSH2 0xA83 JUMP JUMPDEST DUP2 EQ PUSH2 0xAAB JUMPI PUSH0 PUSH0 REVERT JUMPDEST POP JUMP JUMPDEST PUSH0 DUP2 MLOAD SWAP1 POP PUSH2 0xABC DUP2 PUSH2 0xA98 JUMP JUMPDEST SWAP3 SWAP2 POP POP JUMP JUMPDEST PUSH0 DUP2 SWAP1 POP SWAP2 SWAP1 POP JUMP JUMPDEST PUSH2 0xAD4 DUP2 PUSH2 0xAC2 JUMP JUMPDEST DUP2 EQ PUSH2 0xADE JUMPI PUSH0 PUSH0 REVERT JUMPDEST POP JUMP JUMPDEST PUSH0 DUP2 MLOAD SWAP1 POP PUSH2 0xAEF DUP2 PUSH2 0xACB JUMP JUMPDEST SWAP3 SWAP2 POP POP JUMP JUMPDEST PUSH0 DUP2 MLOAD SWAP1 POP PUSH2 0xB03 DUP2 PUSH2 0x78F JUMP JUMPDEST SWAP3 SWAP2 POP POP JUMP JUMPDEST PUSH0 PUSH0 PUSH0 PUSH0 PUSH0 PUSH1 0xA0 DUP7 DUP9 SUB SLT ISZERO PUSH2 0xB22 JUMPI PUSH2 0xB21 PUSH2 0x6AD JUMP JUMPDEST JUMPDEST PUSH0 PUSH2 0xB2F DUP9 DUP3 DUP10 ADD PUSH2 0xAAE JUMP JUMPDEST SWAP6 POP POP PUSH1 0x20 PUSH2 0xB40 DUP9 DUP3 DUP10 ADD PUSH2 0xAE1 JUMP JUMPDEST SWAP5 POP POP PUSH1 0x40 PUSH2 0xB51 DUP9 DUP3 DUP10 ADD PUSH2 0xAF5 JUMP JUMPDEST SWAP4 POP POP PUSH1 0x60 PUSH2 0xB62 DUP9 DUP3 DUP10 ADD PUSH2 0xAF5 JUMP JUMPDEST SWAP3 POP POP PUSH1 0x80 PUSH2 0xB73 DUP9 DUP3 DUP10 ADD PUSH2 0xAAE JUMP JUMPDEST SWAP2 POP POP SWAP3 SWAP6 POP SWAP3 SWAP6 SWAP1 SWAP4 POP JUMP JUMPDEST PUSH0 PUSH2 0xB8A DUP3 PUSH2 0xAC2 JUMP JUMPDEST SWAP2 POP PUSH2 0xB95 DUP4 PUSH2 0xAC2 JUMP JUMPDEST SWAP3 POP DUP3 DUP3 MUL PUSH2 0xBA3 DUP2 PUSH2 0xAC2 JUMP JUMPDEST SWAP2 POP PUSH32 0x8000000000000000000000000000000000000000000000000000000000000000 DUP5 EQ PUSH0 DUP5 SLT AND ISZERO PUSH2 0xBDA JUMPI PUSH2 0xBD9 PUSH2 0x985 JUMP JUMPDEST JUMPDEST DUP3 DUP3 SDIV DUP5 EQ DUP4 ISZERO OR PUSH2 0xBEF JUMPI PUSH2 0xBEE PUSH2 0x985 JUMP JUMPDEST JUMPDEST POP SWAP3 SWAP2 POP POP JUMP INVALID LOG2 PUSH5 0x6970667358 0x22 SLT KECCAK256 MSTORE8 RJUMP 0x7156 ADDRESS JUMPDEST INVALID 0xD6 SGT TLOAD DIV BLOBBASEFEE 0xEA DUP11 PUSH25 0x1C26BC26AABE375DCE8150CBAE2D418A8A64736F6C63430008 SAR STOP CALLER "
		},
		"gasEstimates": {
			"creation": {
				"codeDepositCost": "623200",
				"executionCost": "infinite",
				"totalCost": "infinite"
			},
			"external": {
				"MINIMIUM_USD()": "325",
				"addressToamountFunded(address)": "2780",
				"fund()": "infinite",
				"funders(uint256)": "5031",
				"i_owner()": "infinite",
				"withdraw()": "infinite"
			}
		},
		"methodIdentifiers": {
			"MINIMIUM_USD()": "3890145a",
			"addressToamountFunded(address)": "2398fa15",
			"fund()": "b60d4288",
			"funders(uint256)": "dc0d3dff",
			"i_owner()": "dba6335f",
			"withdraw()": "3ccfd60b"
		}
	},
	"abi": [
		{
			"inputs": [],
			"stateMutability": "nonpayable",
			"type": "constructor"
		},
		{
			"inputs": [],
			"name": "FundMe__NotOwner",
			"type": "error"
		},
		{
			"inputs": [],
			"name": "MINIMIUM_USD",
			"outputs": [
				{
					"internalType": "uint256",
					"name": "",
					"type": "uint256"
				}
			],
			"stateMutability": "view",
			"type": "function"
		},
		{
			"inputs": [
				{
					"internalType": "address",
					"name": "funder",
					"type": "address"
				}
			],
			"name": "addressToamountFunded",
			"outputs": [
				{
					"internalType": "uint256",
					"name": "amountFunded",
					"type": "uint256"
				}
			],
			"stateMutability": "view",
			"type": "function"
		},
		{
			"inputs": [],
			"name": "fund",
			"outputs": [],
			"stateMutability": "payable",
			"type": "function"
		},
		{
			"inputs": [
				{
					"internalType": "uint256",
					"name": "",
					"type": "uint256"
				}
			],
			"name": "funders",
			"outputs": [
				{
					"internalType": "address",
					"name": "",
					"type": "address"
				}
			],
			"stateMutability": "view",
			"type": "function"
		},
		{
			"inputs": [],
			"name": "i_owner",
			"outputs": [
				{
					"internalType": "address",
					"name": "",
					"type": "address"
				}
			],
			"stateMutability": "view",
			"type": "function"
		},
		{
			"inputs": [],
			"name": "withdraw",
			"outputs": [],
			"stateMutability": "nonpayable",
			"type": "function"
		}
	]
}